{
  "address": "0xd5332e322bA2A5842660911B51Af625511D9E9A7",
  "abi": [
    {
      "inputs": [
        {
          "internalType": "address",
          "name": "vrfCoordinatorV2",
          "type": "address"
        },
        {
          "internalType": "uint256",
          "name": "entranceFee",
          "type": "uint256"
        },
        {
          "internalType": "bytes32",
          "name": "gasLane",
          "type": "bytes32"
        },
        {
          "internalType": "uint64",
          "name": "subscriptionId",
          "type": "uint64"
        },
        {
          "internalType": "uint32",
          "name": "callbackGasLimit",
          "type": "uint32"
        },
        {
          "internalType": "uint256",
          "name": "interval",
          "type": "uint256"
        }
      ],
      "stateMutability": "nonpayable",
      "type": "constructor"
    },
    {
      "inputs": [
        {
          "internalType": "address",
          "name": "have",
          "type": "address"
        },
        {
          "internalType": "address",
          "name": "want",
          "type": "address"
        }
      ],
      "name": "OnlyCoordinatorCanFulfill",
      "type": "error"
    },
    {
      "inputs": [],
      "name": "Raffle_NotEnoughETHEntered",
      "type": "error"
    },
    {
      "inputs": [],
      "name": "Raffle_NotOpen",
      "type": "error"
    },
    {
      "inputs": [],
      "name": "Raffle_TransferFailed",
      "type": "error"
    },
    {
      "inputs": [
        {
          "internalType": "uint256",
          "name": "currentBalance",
          "type": "uint256"
        },
        {
          "internalType": "uint256",
          "name": "numPlayers",
          "type": "uint256"
        },
        {
          "internalType": "uint256",
          "name": "raffleState",
          "type": "uint256"
        }
      ],
      "name": "Raffle_UpkeepNotNeeded",
      "type": "error"
    },
    {
      "anonymous": false,
      "inputs": [
        {
          "indexed": true,
          "internalType": "address",
          "name": "player",
          "type": "address"
        }
      ],
      "name": "LotteryEnter",
      "type": "event"
    },
    {
      "anonymous": false,
      "inputs": [
        {
          "indexed": true,
          "internalType": "uint256",
          "name": "requestId",
          "type": "uint256"
        }
      ],
      "name": "RequestedLotteryWinner",
      "type": "event"
    },
    {
      "anonymous": false,
      "inputs": [
        {
          "indexed": true,
          "internalType": "address",
          "name": "winner",
          "type": "address"
        }
      ],
      "name": "WinnerPicked",
      "type": "event"
    },
    {
      "inputs": [
        {
          "internalType": "bytes",
          "name": "",
          "type": "bytes"
        }
      ],
      "name": "checkUpkeep",
      "outputs": [
        {
          "internalType": "bool",
          "name": "upkeepNeeded",
          "type": "bool"
        },
        {
          "internalType": "bytes",
          "name": "",
          "type": "bytes"
        }
      ],
      "stateMutability": "view",
      "type": "function"
    },
    {
      "inputs": [],
      "name": "enterLottery",
      "outputs": [],
      "stateMutability": "payable",
      "type": "function"
    },
    {
      "inputs": [],
      "name": "getEntranceFee",
      "outputs": [
        {
          "internalType": "uint256",
          "name": "",
          "type": "uint256"
        }
      ],
      "stateMutability": "view",
      "type": "function"
    },
    {
      "inputs": [],
      "name": "getLatestTimeStamp",
      "outputs": [
        {
          "internalType": "uint256",
          "name": "",
          "type": "uint256"
        }
      ],
      "stateMutability": "view",
      "type": "function"
    },
    {
      "inputs": [],
      "name": "getNumWords",
      "outputs": [
        {
          "internalType": "uint256",
          "name": "",
          "type": "uint256"
        }
      ],
      "stateMutability": "pure",
      "type": "function"
    },
    {
      "inputs": [],
      "name": "getNumberOfPlayers",
      "outputs": [
        {
          "internalType": "uint256",
          "name": "",
          "type": "uint256"
        }
      ],
      "stateMutability": "view",
      "type": "function"
    },
    {
      "inputs": [
        {
          "internalType": "uint256",
          "name": "index",
          "type": "uint256"
        }
      ],
      "name": "getPlayer",
      "outputs": [
        {
          "internalType": "address",
          "name": "",
          "type": "address"
        }
      ],
      "stateMutability": "view",
      "type": "function"
    },
    {
      "inputs": [],
      "name": "getRaffleState",
      "outputs": [
        {
          "internalType": "enum LotteryVRF.RaffleState",
          "name": "",
          "type": "uint8"
        }
      ],
      "stateMutability": "view",
      "type": "function"
    },
    {
      "inputs": [],
      "name": "getRecentWinner",
      "outputs": [
        {
          "internalType": "address",
          "name": "",
          "type": "address"
        }
      ],
      "stateMutability": "view",
      "type": "function"
    },
    {
      "inputs": [],
      "name": "getRequestConfirmations",
      "outputs": [
        {
          "internalType": "uint256",
          "name": "",
          "type": "uint256"
        }
      ],
      "stateMutability": "pure",
      "type": "function"
    },
    {
      "inputs": [],
      "name": "i_entranceFee",
      "outputs": [
        {
          "internalType": "uint256",
          "name": "",
          "type": "uint256"
        }
      ],
      "stateMutability": "view",
      "type": "function"
    },
    {
      "inputs": [
        {
          "internalType": "bytes",
          "name": "",
          "type": "bytes"
        }
      ],
      "name": "performUpkeep",
      "outputs": [],
      "stateMutability": "nonpayable",
      "type": "function"
    },
    {
      "inputs": [
        {
          "internalType": "uint256",
          "name": "requestId",
          "type": "uint256"
        },
        {
          "internalType": "uint256[]",
          "name": "randomWords",
          "type": "uint256[]"
        }
      ],
      "name": "rawFulfillRandomWords",
      "outputs": [],
      "stateMutability": "nonpayable",
      "type": "function"
    },
    {
      "inputs": [
        {
          "internalType": "uint256",
          "name": "",
          "type": "uint256"
        }
      ],
      "name": "s_players",
      "outputs": [
        {
          "internalType": "address payable",
          "name": "",
          "type": "address"
        }
      ],
      "stateMutability": "view",
      "type": "function"
    }
  ],
  "transactionHash": "0x7be6b9c704976447428a3013b8ac264b74f1f818ab7832d02a644d679e36c200",
  "args": [
    "0x6168499c0cFfCaCD319c818142124B7A15E857ab",
    "10000000000000000",
    "0xd89b2bf150e3b9e13446986e571fb9cab24b13cea0a43ea20a6049a85cc807cc",
    "10222",
    "600000",
    "30"
  ],
  "numDeployments": 1,
  "solcInputHash": "be70784fa28147558d48aef839218b3f",
  "bytecode": "0x6101606040523480156200001257600080fd5b5060405162001943380380620019438339818101604052810190620000389190620001ad565b858073ffffffffffffffffffffffffffffffffffffffff1660808173ffffffffffffffffffffffffffffffffffffffff1660601b81525050508573ffffffffffffffffffffffffffffffffffffffff1660a08173ffffffffffffffffffffffffffffffffffffffff1660601b815250508460c081815250508360e081815250508267ffffffffffffffff166101008167ffffffffffffffff1660c01b815250508163ffffffff166101208163ffffffff1660e01b815250506000600160146101000a81548160ff02191690836001811115620001195762000118620002b5565b5b0217905550426002819055508061014081815250505050505050506200036b565b6000815190506200014b81620002e9565b92915050565b600081519050620001628162000303565b92915050565b60008151905062000179816200031d565b92915050565b600081519050620001908162000337565b92915050565b600081519050620001a78162000351565b92915050565b60008060008060008060c08789031215620001cd57620001cc620002e4565b5b6000620001dd89828a016200013a565b9650506020620001f089828a0162000168565b95505060406200020389828a0162000151565b94505060606200021689828a0162000196565b93505060806200022989828a016200017f565b92505060a06200023c89828a0162000168565b9150509295509295509295565b6000620002568262000267565b9050919050565b6000819050919050565b600073ffffffffffffffffffffffffffffffffffffffff82169050919050565b6000819050919050565b600063ffffffff82169050919050565b600067ffffffffffffffff82169050919050565b7f4e487b7100000000000000000000000000000000000000000000000000000000600052602160045260246000fd5b600080fd5b620002f48162000249565b81146200030057600080fd5b50565b6200030e816200025d565b81146200031a57600080fd5b50565b620003288162000287565b81146200033457600080fd5b50565b620003428162000291565b81146200034e57600080fd5b50565b6200035c81620002a1565b81146200036857600080fd5b50565b60805160601c60a05160601c60c05160e0516101005160c01c6101205160e01c6101405161155c620003e760003960006106df0152600061058e0152600061056b0152600061054a0152600081816103520152818161078601526107e90152600061050e01526000818161038f01526103e3015261155c6000f3fe6080604052600436106100dd5760003560e01c80635f1b0fd81161007f578063ae771f6b11610059578063ae771f6b1461029f578063c1af5785146102dc578063e55ae4e8146102e6578063fd6673f514610323576100dd565b80635f1b0fd81461020b5780636e04ff0d146102365780637ea3e6c114610274576100dd565b8063320229eb116100bb578063320229eb146101615780634585e33b1461018c578063473f1ddc146101b557806353a2c19a146101e0576100dd565b806309bc33a7146100e2578063115cbaf51461010d5780631fe543e314610138575b600080fd5b3480156100ee57600080fd5b506100f761034e565b6040516101049190611150565b60405180910390f35b34801561011957600080fd5b50610122610376565b60405161012f9190611135565b60405180910390f35b34801561014457600080fd5b5061015f600480360381019061015a9190610eff565b61038d565b005b34801561016d57600080fd5b5061017661044d565b6040516101839190611150565b60405180910390f35b34801561019857600080fd5b506101b360048036038101906101ae9190610e0f565b610457565b005b3480156101c157600080fd5b506101ca610656565b6040516101d79190611053565b60405180910390f35b3480156101ec57600080fd5b506101f5610680565b6040516102029190611150565b60405180910390f35b34801561021757600080fd5b5061022061068f565b60405161022d9190611150565b60405180910390f35b34801561024257600080fd5b5061025d60048036038101906102589190610e5c565b61069c565b60405161026b9291906110b2565b60405180910390f35b34801561028057600080fd5b50610289610784565b6040516102969190611150565b60405180910390f35b3480156102ab57600080fd5b506102c660048036038101906102c19190610ea5565b6107a8565b6040516102d3919061106e565b60405180910390f35b6102e46107e7565b005b3480156102f257600080fd5b5061030d60048036038101906103089190610ea5565b610956565b60405161031a9190611053565b60405180910390f35b34801561032f57600080fd5b5061033861099d565b6040516103459190611150565b60405180910390f35b60007f0000000000000000000000000000000000000000000000000000000000000000905090565b6000600160149054906101000a900460ff16905090565b7f000000000000000000000000000000000000000000000000000000000000000073ffffffffffffffffffffffffffffffffffffffff163373ffffffffffffffffffffffffffffffffffffffff161461043f57337f00000000000000000000000000000000000000000000000000000000000000006040517f1cf993f4000000000000000000000000000000000000000000000000000000008152600401610436929190611089565b60405180910390fd5b61044982826109a9565b5050565b6000600254905090565b60006104716040518060200160405280600081525061069c565b509050806104e05747600080549050600160149054906101000a900460ff1660018111156104a2576104a161143c565b5b6040517fe059521b0000000000000000000000000000000000000000000000000000000081526004016104d79392919061116b565b60405180910390fd5b60018060146101000a81548160ff021916908360018111156105055761050461143c565b5b021790555060007f000000000000000000000000000000000000000000000000000000000000000073ffffffffffffffffffffffffffffffffffffffff16635d3b1d307f00000000000000000000000000000000000000000000000000000000000000007f000000000000000000000000000000000000000000000000000000000000000060037f000000000000000000000000000000000000000000000000000000000000000060016040518663ffffffff1660e01b81526004016105cf9594939291906110e2565b602060405180830381600087803b1580156105e957600080fd5b505af11580156105fd573d6000803e3d6000fd5b505050506040513d601f19601f820116820180604052508101906106219190610ed2565b9050807febf56642252004c18a776f30d528e7a0ce8c5db14b6596fb6550f630c8a24c6c60405160405180910390a250505050565b6000600160009054906101000a900473ffffffffffffffffffffffffffffffffffffffff16905090565b6000600163ffffffff16905090565b6000600361ffff16905090565b600060606000600160149054906101000a900460ff1660018111156106c4576106c361143c565b5b600060018111156106d8576106d761143c565b5b14905060007f00000000000000000000000000000000000000000000000000000000000000006002544261070c919061124b565b1190506000806000805490501190506000804711905083801561072c5750825b80156107355750815b801561073e5750805b9550856040518060400160405280600381526020017f30783000000000000000000000000000000000000000000000000000000000008152509550955050505050915091565b7f000000000000000000000000000000000000000000000000000000000000000081565b600081815481106107b857600080fd5b906000526020600020016000915054906101000a900473ffffffffffffffffffffffffffffffffffffffff1681565b7f0000000000000000000000000000000000000000000000000000000000000000341015610841576040517f74938f2700000000000000000000000000000000000000000000000000000000815260040160405180910390fd5b600060018111156108555761085461143c565b5b600160149054906101000a900460ff1660018111156108775761087661143c565b5b146108ae576040517fd6e19a8d00000000000000000000000000000000000000000000000000000000815260040160405180910390fd5b6000339080600181540180825580915050600190039060005260206000200160009091909190916101000a81548173ffffffffffffffffffffffffffffffffffffffff021916908373ffffffffffffffffffffffffffffffffffffffff1602179055503373ffffffffffffffffffffffffffffffffffffffff167f1d64fb5ba9f2548c5b98468d58f25b87b9e866afee0122e92d9fe722bf85076c60405160405180910390a2565b600080828154811061096b5761096a61146b565b5b9060005260206000200160009054906101000a900473ffffffffffffffffffffffffffffffffffffffff169050919050565b60008080549050905090565b60008080549050826000815181106109c4576109c361146b565b5b60200260200101516109d691906113ad565b905060008082815481106109ed576109ec61146b565b5b9060005260206000200160009054906101000a900473ffffffffffffffffffffffffffffffffffffffff16905080600160006101000a81548173ffffffffffffffffffffffffffffffffffffffff021916908373ffffffffffffffffffffffffffffffffffffffff1602179055506000600160146101000a81548160ff02191690836001811115610a8157610a8061143c565b5b0217905550600067ffffffffffffffff811115610aa157610aa061149a565b5b604051908082528060200260200182016040528015610acf5781602001602082028036833780820191505090505b5060009080519060200190610ae5929190610bda565b504260028190555060008173ffffffffffffffffffffffffffffffffffffffff1647604051610b139061103e565b60006040518083038185875af1925050503d8060008114610b50576040519150601f19603f3d011682016040523d82523d6000602084013e610b55565b606091505b5050905080610b90576040517fba31c4f300000000000000000000000000000000000000000000000000000000815260040160405180910390fd5b8173ffffffffffffffffffffffffffffffffffffffff167f5b690ec4a06fe979403046eaeea5b3ce38524683c3001f662c8b5a829632f7df60405160405180910390a25050505050565b828054828255906000526020600020908101928215610c53579160200282015b82811115610c525782518260006101000a81548173ffffffffffffffffffffffffffffffffffffffff021916908373ffffffffffffffffffffffffffffffffffffffff16021790555091602001919060010190610bfa565b5b509050610c609190610c64565b5090565b5b80821115610c7d576000816000905550600101610c65565b5090565b6000610c94610c8f846111c7565b6111a2565b90508083825260208201905082856020860282011115610cb757610cb66114d3565b5b60005b85811015610ce75781610ccd8882610de5565b845260208401935060208301925050600181019050610cba565b5050509392505050565b6000610d04610cff846111f3565b6111a2565b905082815260208101848484011115610d2057610d1f6114d8565b5b610d2b84828561133a565b509392505050565b600082601f830112610d4857610d476114ce565b5b8135610d58848260208601610c81565b91505092915050565b60008083601f840112610d7757610d766114ce565b5b8235905067ffffffffffffffff811115610d9457610d936114c9565b5b602083019150836001820283011115610db057610daf6114d3565b5b9250929050565b600082601f830112610dcc57610dcb6114ce565b5b8135610ddc848260208601610cf1565b91505092915050565b600081359050610df48161150f565b92915050565b600081519050610e098161150f565b92915050565b60008060208385031215610e2657610e256114e2565b5b600083013567ffffffffffffffff811115610e4457610e436114dd565b5b610e5085828601610d61565b92509250509250929050565b600060208284031215610e7257610e716114e2565b5b600082013567ffffffffffffffff811115610e9057610e8f6114dd565b5b610e9c84828501610db7565b91505092915050565b600060208284031215610ebb57610eba6114e2565b5b6000610ec984828501610de5565b91505092915050565b600060208284031215610ee857610ee76114e2565b5b6000610ef684828501610dfa565b91505092915050565b60008060408385031215610f1657610f156114e2565b5b6000610f2485828601610de5565b925050602083013567ffffffffffffffff811115610f4557610f446114dd565b5b610f5185828601610d33565b9150509250929050565b610f6481611291565b82525050565b610f738161127f565b82525050565b610f82816112a3565b82525050565b610f91816112af565b82525050565b6000610fa282611224565b610fac818561122f565b9350610fbc818560208601611349565b610fc5816114e7565b840191505092915050565b610fd981611328565b82525050565b6000610fec600083611240565b9150610ff7826114f8565b600082019050919050565b61100b816112cc565b82525050565b61101a816112fa565b82525050565b61102981611304565b82525050565b61103881611314565b82525050565b600061104982610fdf565b9150819050919050565b60006020820190506110686000830184610f6a565b92915050565b60006020820190506110836000830184610f5b565b92915050565b600060408201905061109e6000830185610f6a565b6110ab6020830184610f6a565b9392505050565b60006040820190506110c76000830185610f79565b81810360208301526110d98184610f97565b90509392505050565b600060a0820190506110f76000830188610f88565b611104602083018761102f565b6111116040830186611002565b61111e6060830185611020565b61112b6080830184611020565b9695505050505050565b600060208201905061114a6000830184610fd0565b92915050565b60006020820190506111656000830184611011565b92915050565b60006060820190506111806000830186611011565b61118d6020830185611011565b61119a6040830184611011565b949350505050565b60006111ac6111bd565b90506111b8828261137c565b919050565b6000604051905090565b600067ffffffffffffffff8211156111e2576111e161149a565b5b602082029050602081019050919050565b600067ffffffffffffffff82111561120e5761120d61149a565b5b611217826114e7565b9050602081019050919050565b600081519050919050565b600082825260208201905092915050565b600081905092915050565b6000611256826112fa565b9150611261836112fa565b925082821015611274576112736113de565b5b828203905092915050565b600061128a826112da565b9050919050565b600061129c826112da565b9050919050565b60008115159050919050565b6000819050919050565b60008190506112c7826114fb565b919050565b600061ffff82169050919050565b600073ffffffffffffffffffffffffffffffffffffffff82169050919050565b6000819050919050565b600063ffffffff82169050919050565b600067ffffffffffffffff82169050919050565b6000611333826112b9565b9050919050565b82818337600083830152505050565b60005b8381101561136757808201518184015260208101905061134c565b83811115611376576000848401525b50505050565b611385826114e7565b810181811067ffffffffffffffff821117156113a4576113a361149a565b5b80604052505050565b60006113b8826112fa565b91506113c3836112fa565b9250826113d3576113d261140d565b5b828206905092915050565b7f4e487b7100000000000000000000000000000000000000000000000000000000600052601160045260246000fd5b7f4e487b7100000000000000000000000000000000000000000000000000000000600052601260045260246000fd5b7f4e487b7100000000000000000000000000000000000000000000000000000000600052602160045260246000fd5b7f4e487b7100000000000000000000000000000000000000000000000000000000600052603260045260246000fd5b7f4e487b7100000000000000000000000000000000000000000000000000000000600052604160045260246000fd5b600080fd5b600080fd5b600080fd5b600080fd5b600080fd5b600080fd5b6000601f19601f8301169050919050565b50565b6002811061150c5761150b61143c565b5b50565b611518816112fa565b811461152357600080fd5b5056fea26469706673582212203d3893b9a5a7d692545a67d6e7da649a62546e07e5c2ce70b237bf958f5db58564736f6c63430008070033",
  "devdoc": {
    "author": "AroundTheBlock7",
    "details": "This implements Chainlink VRF v2 and Chainlink Keepers",
    "kind": "dev",
    "methods": {},
    "title": "A sample Lottery Contract",
    "version": 1
  },
  "userdoc": {
    "kind": "user",
    "methods": {},
    "notice": "This contract is for creating an untamperable decentralized smart contract",
    "version": 1
  },
  "storageLayout": {
    "storage": [
      {
        "astId": 200,
        "contract": "contracts/LotteryVRF.sol:LotteryVRF",
        "label": "s_players",
        "offset": 0,
        "slot": "0",
        "type": "t_array(t_address_payable)dyn_storage"
      },
      {
        "astId": 214,
        "contract": "contracts/LotteryVRF.sol:LotteryVRF",
        "label": "s_recentWinner",
        "offset": 0,
        "slot": "1",
        "type": "t_address"
      },
      {
        "astId": 217,
        "contract": "contracts/LotteryVRF.sol:LotteryVRF",
        "label": "s_raffleState",
        "offset": 20,
        "slot": "1",
        "type": "t_enum(RaffleState)192"
      },
      {
        "astId": 219,
        "contract": "contracts/LotteryVRF.sol:LotteryVRF",
        "label": "s_lastTimeStamp",
        "offset": 0,
        "slot": "2",
        "type": "t_uint256"
      }
    ],
    "types": {
      "t_address": {
        "encoding": "inplace",
        "label": "address",
        "numberOfBytes": "20"
      },
      "t_address_payable": {
        "encoding": "inplace",
        "label": "address payable",
        "numberOfBytes": "20"
      },
      "t_array(t_address_payable)dyn_storage": {
        "base": "t_address_payable",
        "encoding": "dynamic_array",
        "label": "address payable[]",
        "numberOfBytes": "32"
      },
      "t_enum(RaffleState)192": {
        "encoding": "inplace",
        "label": "enum LotteryVRF.RaffleState",
        "numberOfBytes": "1"
      },
      "t_uint256": {
        "encoding": "inplace",
        "label": "uint256",
        "numberOfBytes": "32"
      }
    }
  }
}